{
  "address": "0xd023712FCf87a2D74a2851753fc9bD2A30e32b23",
  "abi": [
    {
      "inputs": [
        {
          "internalType": "string",
          "name": "make",
          "type": "string"
        },
        {
          "internalType": "string",
          "name": "model",
          "type": "string"
        },
        {
          "internalType": "string",
          "name": "color",
          "type": "string"
        },
        {
          "internalType": "uint16",
          "name": "year",
          "type": "uint16"
        },
        {
          "internalType": "bool",
          "name": "fullService",
          "type": "bool"
        },
        {
          "internalType": "uint256",
          "name": "reservedPrice",
          "type": "uint256"
        }
      ],
      "stateMutability": "nonpayable",
      "type": "constructor"
    },
    {
      "inputs": [],
      "name": "CarAuction__AuctionIsOver",
      "type": "error"
    },
    {
      "inputs": [],
      "name": "CarAuction__AuctionStillInProgress",
      "type": "error"
    },
    {
      "inputs": [],
      "name": "CarAuction__LessThanReservedAmount",
      "type": "error"
    },
    {
      "inputs": [],
      "name": "CarAuction__NotABidder",
      "type": "error"
    },
    {
      "inputs": [],
      "name": "CarAuction__OnlyOwner",
      "type": "error"
    },
    {
      "inputs": [],
      "name": "completeAuction",
      "outputs": [],
      "stateMutability": "nonpayable",
      "type": "function"
    },
    {
      "inputs": [],
      "name": "enterAuction",
      "outputs": [],
      "stateMutability": "payable",
      "type": "function"
    },
    {
      "inputs": [],
      "name": "getParticipantsCount",
      "outputs": [
        {
          "internalType": "uint256",
          "name": "",
          "type": "uint256"
        }
      ],
      "stateMutability": "view",
      "type": "function"
    },
    {
      "inputs": [],
      "name": "getReservedPrice",
      "outputs": [
        {
          "internalType": "uint256",
          "name": "",
          "type": "uint256"
        }
      ],
      "stateMutability": "view",
      "type": "function"
    },
    {
      "inputs": [],
      "name": "s_itemForAuction",
      "outputs": [
        {
          "internalType": "string",
          "name": "make",
          "type": "string"
        },
        {
          "internalType": "string",
          "name": "model",
          "type": "string"
        },
        {
          "internalType": "string",
          "name": "color",
          "type": "string"
        },
        {
          "internalType": "uint16",
          "name": "year",
          "type": "uint16"
        },
        {
          "internalType": "bool",
          "name": "serviceHistory",
          "type": "bool"
        },
        {
          "internalType": "uint256",
          "name": "reservedPrice",
          "type": "uint256"
        }
      ],
      "stateMutability": "view",
      "type": "function"
    },
    {
      "inputs": [],
      "name": "withdrawBid",
      "outputs": [],
      "stateMutability": "nonpayable",
      "type": "function"
    }
  ],
  "transactionHash": "0x250109cbada1db455e71342941e9b4ad8c93ad6661b3e84a9df8b84eef3721a2",
  "args": [
    "Ford",
    "Figo",
    "Blue",
    2010,
    true,
    "2000000000000000"
  ],
  "numDeployments": 1,
  "solcInputHash": "a17b8bc7818c842292893b00add6c7a2",
  "bytecode": "0x60c06040523480156200001157600080fd5b50604051620010de380380620010de83398181016040528101906200003791906200041c565b3373ffffffffffffffffffffffffffffffffffffffff1660808173ffffffffffffffffffffffffffffffffffffffff16815250508060a0818152505085600360000190805190602001906200008e92919062000118565b508460036001019080519060200190620000aa92919062000118565b508360036002019080519060200190620000c692919062000118565b50826003800160006101000a81548161ffff021916908361ffff160217905550816003800160026101000a81548160ff021916908315150217905550806003600401819055505050505050506200057a565b828054620001269062000544565b90600052602060002090601f0160209004810192826200014a576000855562000196565b82601f106200016557805160ff191683800117855562000196565b8280016001018555821562000196579182015b828111156200019557825182559160200191906001019062000178565b5b509050620001a59190620001a9565b5090565b5b80821115620001c4576000816000905550600101620001aa565b5090565b6000604051905090565b600080fd5b600080fd5b600080fd5b600080fd5b6000601f19601f8301169050919050565b7f4e487b7100000000000000000000000000000000000000000000000000000000600052604160045260246000fd5b6200023182620001e6565b810181811067ffffffffffffffff82111715620002535762000252620001f7565b5b80604052505050565b600062000268620001c8565b905062000276828262000226565b919050565b600067ffffffffffffffff821115620002995762000298620001f7565b5b620002a482620001e6565b9050602081019050919050565b60005b83811015620002d1578082015181840152602081019050620002b4565b83811115620002e1576000848401525b50505050565b6000620002fe620002f8846200027b565b6200025c565b9050828152602081018484840111156200031d576200031c620001e1565b5b6200032a848285620002b1565b509392505050565b600082601f8301126200034a5762000349620001dc565b5b81516200035c848260208601620002e7565b91505092915050565b600061ffff82169050919050565b6200037e8162000365565b81146200038a57600080fd5b50565b6000815190506200039e8162000373565b92915050565b60008115159050919050565b620003bb81620003a4565b8114620003c757600080fd5b50565b600081519050620003db81620003b0565b92915050565b6000819050919050565b620003f681620003e1565b81146200040257600080fd5b50565b6000815190506200041681620003eb565b92915050565b60008060008060008060c087890312156200043c576200043b620001d2565b5b600087015167ffffffffffffffff8111156200045d576200045c620001d7565b5b6200046b89828a0162000332565b965050602087015167ffffffffffffffff8111156200048f576200048e620001d7565b5b6200049d89828a0162000332565b955050604087015167ffffffffffffffff811115620004c157620004c0620001d7565b5b620004cf89828a0162000332565b9450506060620004e289828a016200038d565b9350506080620004f589828a01620003ca565b92505060a06200050889828a0162000405565b9150509295509295509295565b7f4e487b7100000000000000000000000000000000000000000000000000000000600052602260045260246000fd5b600060028204905060018216806200055d57607f821691505b6020821081141562000574576200057362000515565b5b50919050565b60805160a051610b37620005a760003960008181610512015261085a0152600061045c0152610b376000f3fe6080604052600436106100555760003560e01c806337271cc71461005a5780634d1a2c541461007157806374f7cd4e14610088578063a992d69f14610092578063cabfaa18146100c2578063ec312480146100ed575b600080fd5b34801561006657600080fd5b5061006f610118565b005b34801561007d57600080fd5b50610086610373565b005b6100906104c4565b005b34801561009e57600080fd5b506100a761066c565b6040516100b996959493929190610968565b60405180910390f35b3480156100ce57600080fd5b506100d7610849565b6040516100e491906109de565b60405180910390f35b3480156100f957600080fd5b50610102610856565b60405161010f91906109de565b60405180910390f35b6000151560008054906101000a900460ff1615151415610164576040517f1533210800000000000000000000000000000000000000000000000000000000815260040160405180910390fd5b60008060018054806020026020016040519081016040528092919081815260200182805480156101e957602002820191906000526020600020905b8160009054906101000a900473ffffffffffffffffffffffffffffffffffffffff1673ffffffffffffffffffffffffffffffffffffffff168152602001906001019080831161019f575b5050505050905060005b81518110156102665781818151811061020f5761020e6109f9565b5b602002602001015173ffffffffffffffffffffffffffffffffffffffff163373ffffffffffffffffffffffffffffffffffffffff1614156102535760019250610266565b808061025e90610a57565b9150506101f3565b508161029e576040517f6a1dd92b00000000000000000000000000000000000000000000000000000000815260040160405180910390fd5b6000600260003373ffffffffffffffffffffffffffffffffffffffff1673ffffffffffffffffffffffffffffffffffffffff1681526020019081526020016000205490506000600260003373ffffffffffffffffffffffffffffffffffffffff1673ffffffffffffffffffffffffffffffffffffffff168152602001908152602001600020819055503373ffffffffffffffffffffffffffffffffffffffff166108fc829081150290604051600060405180830381858888f1935050505015801561036d573d6000803e3d6000fd5b50505050565b60016000806101000a81548160ff021916908315150217905550600060026000600860009054906101000a900473ffffffffffffffffffffffffffffffffffffffff1673ffffffffffffffffffffffffffffffffffffffff1673ffffffffffffffffffffffffffffffffffffffff168152602001908152602001600020549050600060026000600860009054906101000a900473ffffffffffffffffffffffffffffffffffffffff1673ffffffffffffffffffffffffffffffffffffffff1673ffffffffffffffffffffffffffffffffffffffff168152602001908152602001600020819055507f000000000000000000000000000000000000000000000000000000000000000073ffffffffffffffffffffffffffffffffffffffff166108fc829081150290604051600060405180830381858888f193505050501580156104c0573d6000803e3d6000fd5b5050565b6001151560008054906101000a900460ff1615151415610510576040517f61b25cd900000000000000000000000000000000000000000000000000000000815260040160405180910390fd5b7f000000000000000000000000000000000000000000000000000000000000000034101561056a576040517f6a1725b900000000000000000000000000000000000000000000000000000000815260040160405180910390fd5b600033905034600260008373ffffffffffffffffffffffffffffffffffffffff1673ffffffffffffffffffffffffffffffffffffffff168152602001908152602001600020819055506001819080600181540180825580915050600190039060005260206000200160009091909190916101000a81548173ffffffffffffffffffffffffffffffffffffffff021916908373ffffffffffffffffffffffffffffffffffffffff160217905550600954341115610669573460098190555033600860006101000a81548173ffffffffffffffffffffffffffffffffffffffff021916908373ffffffffffffffffffffffffffffffffffffffff1602179055505b50565b600380600001805461067d90610acf565b80601f01602080910402602001604051908101604052809291908181526020018280546106a990610acf565b80156106f65780601f106106cb576101008083540402835291602001916106f6565b820191906000526020600020905b8154815290600101906020018083116106d957829003601f168201915b50505050509080600101805461070b90610acf565b80601f016020809104026020016040519081016040528092919081815260200182805461073790610acf565b80156107845780601f1061075957610100808354040283529160200191610784565b820191906000526020600020905b81548152906001019060200180831161076757829003601f168201915b50505050509080600201805461079990610acf565b80601f01602080910402602001604051908101604052809291908181526020018280546107c590610acf565b80156108125780601f106107e757610100808354040283529160200191610812565b820191906000526020600020905b8154815290600101906020018083116107f557829003601f168201915b5050505050908060030160009054906101000a900461ffff16908060030160029054906101000a900460ff16908060040154905086565b6000600180549050905090565b60007f0000000000000000000000000000000000000000000000000000000000000000905090565b600081519050919050565b600082825260208201905092915050565b60005b838110156108b857808201518184015260208101905061089d565b838111156108c7576000848401525b50505050565b6000601f19601f8301169050919050565b60006108e98261087e565b6108f38185610889565b935061090381856020860161089a565b61090c816108cd565b840191505092915050565b600061ffff82169050919050565b61092e81610917565b82525050565b60008115159050919050565b61094981610934565b82525050565b6000819050919050565b6109628161094f565b82525050565b600060c082019050818103600083015261098281896108de565b9050818103602083015261099681886108de565b905081810360408301526109aa81876108de565b90506109b96060830186610925565b6109c66080830185610940565b6109d360a0830184610959565b979650505050505050565b60006020820190506109f36000830184610959565b92915050565b7f4e487b7100000000000000000000000000000000000000000000000000000000600052603260045260246000fd5b7f4e487b7100000000000000000000000000000000000000000000000000000000600052601160045260246000fd5b6000610a628261094f565b91507fffffffffffffffffffffffffffffffffffffffffffffffffffffffffffffffff821415610a9557610a94610a28565b5b600182019050919050565b7f4e487b7100000000000000000000000000000000000000000000000000000000600052602260045260246000fd5b60006002820490506001821680610ae757607f821691505b60208210811415610afb57610afa610aa0565b5b5091905056fea2646970667358221220f72a11c3a74824ae696b16d5c4fe6afde7d854bb305c1a0def1fed8184f3fb4d64736f6c63430008090033",
  "devdoc": {
    "kind": "dev",
    "methods": {},
    "version": 1
  },
  "userdoc": {
    "kind": "user",
    "methods": {
      "completeAuction()": {
        "notice": "This function is called from a Chainlink Keepers contract, signalling the end of the auction. The amount of the highest bidder will the transafered to the owner of the contract."
      },
      "enterAuction()": {
        "notice": "Function adds the caller to the auction, the function also check if the entered amount is higher that the previous highest value, if found to be the case then the senders address and amount is stored as the new highest amount. At the end of the auction the contract will use the highest bidder details as the winner of the auction."
      },
      "withdrawBid()": {
        "notice": "At the end of the auction the loosing bidders is allowd to withdraw their bids, they however will pay the gas cost. If a loosing bidder withdrawed their funds and try to do so again they will incure and additional gas fee but no funds will be returned."
      }
    },
    "version": 1
  },
  "storageLayout": {
    "storage": [
      {
        "astId": 21,
        "contract": "contracts/CarAuction.sol:CarAuction",
        "label": "s_auctionIsOver",
        "offset": 0,
        "slot": "0",
        "type": "t_bool"
      },
      {
        "astId": 24,
        "contract": "contracts/CarAuction.sol:CarAuction",
        "label": "s_biddersAddress",
        "offset": 0,
        "slot": "1",
        "type": "t_array(t_address)dyn_storage"
      },
      {
        "astId": 28,
        "contract": "contracts/CarAuction.sol:CarAuction",
        "label": "s_bidders",
        "offset": 0,
        "slot": "2",
        "type": "t_mapping(t_address,t_uint256)"
      },
      {
        "astId": 31,
        "contract": "contracts/CarAuction.sol:CarAuction",
        "label": "s_itemForAuction",
        "offset": 0,
        "slot": "3",
        "type": "t_struct(ItemForAuction)15_storage"
      },
      {
        "astId": 33,
        "contract": "contracts/CarAuction.sol:CarAuction",
        "label": "s_highestBiddersAddress",
        "offset": 0,
        "slot": "8",
        "type": "t_address"
      },
      {
        "astId": 35,
        "contract": "contracts/CarAuction.sol:CarAuction",
        "label": "s_highestBidAmount",
        "offset": 0,
        "slot": "9",
        "type": "t_uint256"
      }
    ],
    "types": {
      "t_address": {
        "encoding": "inplace",
        "label": "address",
        "numberOfBytes": "20"
      },
      "t_array(t_address)dyn_storage": {
        "base": "t_address",
        "encoding": "dynamic_array",
        "label": "address[]",
        "numberOfBytes": "32"
      },
      "t_bool": {
        "encoding": "inplace",
        "label": "bool",
        "numberOfBytes": "1"
      },
      "t_mapping(t_address,t_uint256)": {
        "encoding": "mapping",
        "key": "t_address",
        "label": "mapping(address => uint256)",
        "numberOfBytes": "32",
        "value": "t_uint256"
      },
      "t_string_storage": {
        "encoding": "bytes",
        "label": "string",
        "numberOfBytes": "32"
      },
      "t_struct(ItemForAuction)15_storage": {
        "encoding": "inplace",
        "label": "struct CarAuction.ItemForAuction",
        "members": [
          {
            "astId": 4,
            "contract": "contracts/CarAuction.sol:CarAuction",
            "label": "make",
            "offset": 0,
            "slot": "0",
            "type": "t_string_storage"
          },
          {
            "astId": 6,
            "contract": "contracts/CarAuction.sol:CarAuction",
            "label": "model",
            "offset": 0,
            "slot": "1",
            "type": "t_string_storage"
          },
          {
            "astId": 8,
            "contract": "contracts/CarAuction.sol:CarAuction",
            "label": "color",
            "offset": 0,
            "slot": "2",
            "type": "t_string_storage"
          },
          {
            "astId": 10,
            "contract": "contracts/CarAuction.sol:CarAuction",
            "label": "year",
            "offset": 0,
            "slot": "3",
            "type": "t_uint16"
          },
          {
            "astId": 12,
            "contract": "contracts/CarAuction.sol:CarAuction",
            "label": "serviceHistory",
            "offset": 2,
            "slot": "3",
            "type": "t_bool"
          },
          {
            "astId": 14,
            "contract": "contracts/CarAuction.sol:CarAuction",
            "label": "reservedPrice",
            "offset": 0,
            "slot": "4",
            "type": "t_uint256"
          }
        ],
        "numberOfBytes": "160"
      },
      "t_uint16": {
        "encoding": "inplace",
        "label": "uint16",
        "numberOfBytes": "2"
      },
      "t_uint256": {
        "encoding": "inplace",
        "label": "uint256",
        "numberOfBytes": "32"
      }
    }
  }
}